:020000040800F2
:1000000000000520F1690008156500081B6500085F
:1000100021650008276500082D6500080000000024
:100020000000000000000000000000003365000830
:1000300041650008000000004F6500085D6500088C
:10004000416A0008416A0008416A0008416A0008E4
:10005000416A0008416A000869650008416A0008B1
:10006000416A000877650008416A0008416A000893
:10007000416A0008416A0008416A0008416A0008B4
:10008000416A0008416A000885650008416A000865
:10009000416A0008416A0008416A0008416A000894
:1000A000416A0008416A0008416A0008416A000884
:1000B00099650008AD650008416A0008C16500083F
:1000C000D5650008416A0008416A0008416A0008D5
:1000D000416A0008416A0008416A0008E9650008B1
:1000E000FD650008416A0008416A0008416A00088D
:1000F000416A0008416A0008416A0008416A000834
:10010000416A0008416A0008416A0008416A000823
:10011000416A0008416A0008416A0008416A000813
:100120000D660008416A0008416A0008416A00083B
:10013000416A0008416A0008416A0008416A0008F3
:10014000416A0008416A0008416A0008416A0008E3
:10015000416A0008416A0008416A0008416A0008D3
:10016000416A0008416A0008416A0008416A0008C3
:10017000416A0008416A0008416A00080000000066
:10018000416A0008416A0008416A0008416A0008A3
:10019000416A0008416A0008416A0008416A000893
:1001A000416A0008416A0008416A0008416A000883
:1001B000416A0008416A0008416A0008416A000873
:0801C000416A0008416A0008D1
:1001C80010B5054C237833B9044B13B10448AFF389
:1001D80000800123237010BD0C00002000000000E7
:1001E8009C6A000808B5034B1BB103490348AFF3E9
:1001F800008008BD00000000100000209C6A000874
:1002080053B94AB9002908BF00281CBF4FF0FF3175
:100218004FF0FF3000F070B9ADF1080C6DE904CE75
:1002280000F006F8DDF804E0DDE9022304B07047C9
:100238002DE9F047089E0D4604460F46002B4AD18B
:100248008A42944665D9B2FA82F343B102FA03FCB2
:10025800C3F120029F4020FA02F217439C404FEA64
:100268001C4E1FFA8CF5B7FBFEF1220C0EFB117722
:1002780042EA074201FB05F090420AD91CEB020250
:1002880001F1FF3780F01C81904240F21981023958
:100298006244121AA4B2B2FBFEF00EFB102244EA2A
:1002A800024400FB05F5A5420AD91CEB040400F141
:1002B800FF3280F00781A54240F20481644402388D
:1002C80040EA0140641B00211EB1DC400023C6E95E
:1002D8000043BDE8F0878B4208D9002E00F0ED807E
:1002E8000021C6E900050846BDE8F087B3FA83F1A6
:1002F800002949D1AB4202D3824200F2F880841A25
:1003080065EB030201201746002EE2D0C6E900473C
:10031800DFE702B9FFDEB2FA82F3002B40F09080EB
:100328008A1A4FEA1C471FFA8CFE0121B2FBF7F527
:1003380007FB1520220C42EA00420EFB05F0904212
:1003480008D91CEB020205F1FF3802D2904200F2F4
:10035800CB804546121AA4B2B2FBF7F007FB102275
:1003680044EA02440EFB00FEA64508D91CEB04042F
:1003780000F1FF3202D2A64500F2BB801046A4EB82
:100388000E0440EA05409FE7C1F120078B4022FA9E
:1003980007FC4CEA030C05FA01F420FA07F3FD40C8
:1003A8004FEA1C492343B5FBF9F81FFA8CFE09FBF9
:1003B80018551C0C44EA054408FB0EF5A54202FA40
:1003C80001F200FA01F00BD91CEB040408F1FF3A22
:1003D80080F08880A54240F28580A8F10208644434
:1003E800641B9DB2B4FBF9F309FB134445EA0444CA
:1003F80003FB0EFEA64508D91CEB040403F1FF35E8
:100408006CD2A6456AD9023B644443EA0843A3FB7D
:100418000295A4EB0E04AC42C846AE4656D353D060
:1004280056B1B0EB080264EB0E0404FA07F7CA40B1
:10043800CC401743C6E9007418460021BDE8F08790
:10044800C3F1200102FA03FC20FA01F225FA01F1B6
:100458009D402A434FEA1C471FFA8CFEB1FBF7F078
:1004680007FB1015110C41EA054100FB0EF58D4202
:1004780004FA03F408D91CEB010100F1FF382FD26C
:100488008D422DD902386144491B92B2B1FBF7F570
:1004980007FB151142EA014205FB0EF1914208D90A
:1004A8001CEB020205F1FF3816D2914214D9023D25
:1004B8006244521A45EA004138E73146304608E7B7
:1004C8003946E6E61046FBE64845A9D2B9EB0208EC
:1004D80065EB0C0E013BA3E74546EAE72B4694E79C
:1004E8004046D1E7D0467BE7023D624432E7084602
:1004F8000AE76444023842E7704700BF80B500AF9E
:10050800032000F0ABFE002000F006F805F0DAFF4B
:100518000023184680BD000080B582B000AF786027
:10052800124B1A68124B1B7819464FF47A73B3FBB7
:10053800F1F3B2FBF3F3184600F0C5FE0346002BB7
:1005480001D001230EE07B680F2B0AD800227968BE
:100558004FF0FF3000F08DFE064A7B6813600023E1
:1005680000E0012318460837BD4680BD080000207A
:10057800040000200000002080B400AF064B1B7868
:100588001A46064B1B681344044A136000BFBD4655
:100598005DF8047B704700BF04000020280000209D
:1005A80080B400AF034B1B681846BD465DF8047B5A
:1005B800704700BF2800002080B584B000AF786085
:1005C800FFF7EEFFB8607B68FB60FB68B3F1FF3FA5
:1005D80005D00A4B1B781A46FB681344FB6000BF22
:1005E800FFF7DEFF0246BB68D31AFA689A42F7D8CB
:1005F80000BF00BF1037BD4680BD00BF040000200B
:1006080080B584B000AF78600023FB737B68002B53
:1006180001D1012331E07B681B6C002B09D178687C
:1006280005F046FC7B6800225A647B68002283F848
:100638003C207B681B6C03F01003002B16D17B68F1
:100648001A6C104B134043F002027B681A647868F6
:1006580000F09EFA7B6800225A647B681B6C23F0CA
:10066800030343F001027B681A6401E00123FB7372
:100678007B68002283F83C20FB7B18461037BD4678
:1006880080BD00BFFDEEFFFF80B586B000AF78608B
:1006980000237B6100233B617B681B681B68FB6050
:1006A8007B681B685B68BB60FB6803F002037B61C7
:1006B800BB6803F020033B617B69002B49D03B6991
:1006C800002B46D07B681B6C03F01003002B05D170
:1006D8007B681B6C43F400727B681A647B681B6838
:1006E8009B6803F04053002B2BD17B689B69002B40
:1006F80027D17B681B68DB6A03F47003002B06D0E4
:100708007B681B689B6803F48063002B19D17B68A6
:100718001B685A687B681B6822F020025A607B6855
:100728001B6C23F480727B681A647B681B6C03F46F
:100738008053002B05D17B681B6C43F001027B685A
:100748001A64786800F0B0F87B681B686FF01202D2
:100758001A60FB6803F004037B61BB6803F0800345
:100768003B617B69002B57D03B69002B54D07B68D9
:100778001B6C03F01003002B05D17B681B6C43F442
:1007880000527B681A647B681B689B6803F44013FB
:10079800002B39D17B681B689B6B03F44013002B3B
:1007A80006D07B681B689B6803F48063002B2BD101
:1007B8007B681B685B6803F48063002B24D17B682B
:1007C8001B689B6803F04053002B1DD17B689B6915
:1007D800002B19D17B681B685A687B681B6822F05C
:1007E80080025A607B681B6C23F480527B681A6411
:1007F8007B681B6C03F48073002B05D17B681B6C32
:1008080043F001027B681A64786800F0BBFA7B68E1
:100818001B686FF00C021A60FB6803F001037B6130
:10082800BB6803F040033B617B69002B17D03B6931
:10083800002B14D07B681B681B6803F00103012B95
:100848000DD17B681B6C43F480327B681A6478682E
:1008580000F034F87B681B686FF001021A60FB68CF
:1008680003F020037B61BB6803F080633B617B6915
:10087800002B15D03B69002B12D07B685B6C43F0D2
:1008880002027B685A647B681B686FF020021A605A
:10089800786800F01DF87B681B686FF020021A600A
:1008A80000BF1837BD4680BD80B483B000AF786004
:1008B80000BF0C37BD465DF8047B704780B483B039
:1008C80000AF786000BF0C37BD465DF8047B704709
:1008D80080B483B000AF786000BF0C37BD465DF8C8
:1008E800047B704780B485B000AF7860396000231E
:1008F800FB607B6893F83C30012B01D1022336E181
:100908007B68012283F83C203B681B68092B3AD995
:100918003B681B68B3F1004F35D07B681B68D9680A
:100928003B681B689BB21A4613465B0013441E3B88
:10093800072202FA03F3DA437B681B680A40DA608D
:100948003B681B688D4A93420AD17B681B68D9684B
:100958003B689B681A067B681B680A43DA6035E0C7
:100968007B681B68D9683B689A683B681B689BB2C0
:10097800184603465B0003441E3B9A407B681B688D
:100988000A43DA6022E07B681B6819693B681B68C8
:100998009BB21A4613465B001344072202FA03F37C
:1009A800DA437B681B680A401A617B681B6819690F
:1009B8003B689A683B681B689BB2184603465B0015
:1009C80003449A407B681B680A431A613B685B686A
:1009D800062B24D87B681B68596B3B685A681346FA
:1009E8009B001344053B1F2202FA03F3DA437B689A
:1009F8001B680A405A637B681B68596B3B681B6815
:100A08009BB218463B685A6813469B001344053B43
:100A180000FA03F27B681B680A435A634CE03B68A0
:100A28005B680C2B24D87B681B68196B3B685A6879
:100A380013469B001344233B1F2202FA03F3DA43B5
:100A48007B681B680A401A637B681B68196B3B68E4
:100A58001B689BB218463B685A6813469B001344B0
:100A6800233B00FA03F27B681B680A431A6323E0FE
:100A78007B681B68D96A3B685A6813469B00134415
:100A8800413B1F2202FA03F3DA437B681B680A40E2
:100A9800DA627B681B68D96A3B681B689BB2184698
:100AA8003B685A6813469B001344413B00FA03F223
:100AB8007B681B680A43DA627B681B68304A93428A
:100AC8000AD13B681B68B3F1004F05D12D4B5B6819
:100AD8002C4A23F4400353607B681B68284A9342DE
:100AE8000FD13B681B68122B0BD1264B5B68254A3C
:100AF80023F400035360234B5B68224A43F48003CA
:100B080053607B681B681E4A93422BD13B681B6865
:100B18001A4A934203D03B681B68112B22D1194B08
:100B28005B68184A23F480035360164B5B68154AC8
:100B380043F4000353603B681B68104A934211D189
:100B4800114B1B68114AA2FB03239A0C13469B0006
:100B580013445B00FB6002E0FB68013BFB60FB6841
:100B6800002BF9D17B68002283F83C20002318462B
:100B78001437BD465DF8047B704700BF12000010B3
:100B880000200140002301400800002083DE1B43B1
:100B980080B483B000AF7860784B5B68774A23F401
:100BA80040335360754B5A687B685B6873491343DD
:100BB8004B607B681B685A687B681B6822F48072EC
:100BC8005A607B681B6859687B681B691A027B68D6
:100BD8001B680A435A607B681B685A687B681B68F5
:100BE80022F040725A607B681B6859687B689A6873
:100BF8007B681B680A435A607B681B689A687B6835
:100C08001B6822F400629A607B681B6899687B689D
:100C1800DA687B681B680A439A607B689B6A584A53
:100C2800934222D07B681B689A687B681B6822F015
:100C380070629A607B681B6899687B689A6A7B68AF
:100C48001B680A439A607B681B689A687B681B6804
:100C580022F040529A607B681B6899687B68DA6A60
:100C68007B681B680A439A600FE07B681B689A6878
:100C78007B681B6822F070629A607B681B689A68C0
:100C88007B681B6822F040529A607B681B689A68F0
:100C98007B681B6822F002029A607B681B6899686F
:100CA8007B689B695A007B681B680A439A607B686B
:100CB80093F82030002B1BD07B681B685A687B6830
:100CC8001B6842F400625A607B681B685A687B683C
:100CD8001B6822F460425A607B681B6859687B680D
:100CE8005B6A013B5A037B681B680A435A6007E04A
:100CF8007B681B685A687B681B6822F400625A602C
:100D08007B681B68DA6A7B681B6822F47002DA6207
:100D18007B681B68D96A7B68DB69013B1A057B68BD
:100D28001B680A43DA627B681B689A687B681B68E1
:100D380022F400729A607B681B6899687B6893F854
:100D480030305A027B681B680A439A607B681B68CC
:100D58009A687B681B6822F480629A607B681B68CB
:100D680099687B685B699A027B681B680A439A608A
:100D780000BF0C37BD465DF8047B70470023014077
:100D88000100000F80B483B000AF786000BF0C375B
:100D9800BD465DF8047B704780B483B000AF7860CF
:100DA80039607B6893F83C30012B01D1022374E150
:100DB8007B68012283F83C203B681B68092B25D9F6
:100DC8007B681B68D9683B681B689BB21A46134648
:100DD8005B0013441E3B072202FA03F3DA437B68E5
:100DE8001B680A40DA607B681B68D9683B689A68A8
:100DF8003B681B689BB2184603465B0003441E3BD6
:100E08009A407B681B680A43DA6022E07B681B68AB
:100E180019693B681B689BB21A4613465B0013446A
:100E2800072202FA03F3DA437B681B680A401A6157
:100E38007B681B6819693B689A683B681B689BB2AA
:100E4800184603465B0003449A407B681B680A43C4
:100E58001A617B681B689A6B7B681B6822F44012D6
:100E68009A637B681B68996B3B681B69013B1A0591
:100E78007B681B680A439A637B681B68996B3B68AD
:100E88005B68DAB23B681B69DBB2D31ADBB20333A7
:100E9800DBB21A4613469B0013441F2202FA03F3DF
:100EA800DA437B681B680A409A637B681B68996B06
:100EB8003B681B689BB218463B685B68DAB23B68C4
:100EC8001B69DBB2D31ADBB20333DBB21A46134613
:100ED8009B00134400FA03F27B681B680A439A6379
:100EE8003B689B69704A934222D07B681B689A686A
:100EF8007B681B6822F470229A607B681B6899687B
:100F08003B689A697B681B680A439A607B681B6820
:100F18009A687B681B6822F440129A607B681B6899
:100F280099683B68DA697B681B680A439A600FE036
:100F38007B681B689A687B681B6822F470229A6039
:100F48007B681B689A687B681B6822F440129A6069
:100F58003B685B7D002B08D07B681B685A687B6800
:100F68001B6842F480625A6007E07B681B685A6815
:100F78007B681B6822F480625A603B681B7D002BEB
:100F880008D07B681B685A687B681B6842F48052EB
:100F98005A6007E07B681B685A687B681B6822F404
:100FA80080525A603B685B68032B2AD0032B3AD8DF
:100FB800012B02D0022B12D035E07B681B685969DF
:100FC8007B681A68394B0B4053617B681B68596909
:100FD8003B68DA687B681B680A435A6135E07B68BE
:100FE8001B6899697B681A68304B0B4093617B6872
:100FF8001B6899693B68DA687B681B680A439A61D1
:1010080023E07B681B68D9697B681A68274B0B400B
:10101800D3617B681B68D9693B68DA687B681B68A1
:101028000A43DA6111E07B681B68196A7B681A68F1
:101038001E4B0B4013627B681B68196A3B68DA68B1
:101048007B681B680A431A6200BF7B681B68184AE2
:10105800934209D13B681B68122B05D1154B5B687D
:10106800144A43F4800353607B681B68104A934218
:101078000ED13B681B68104A934203D03B681B683B
:10108800112B05D10B4B5B680A4A43F400035360EC
:101098007B68002283F83C20002318460C37BD46A5
:1010A8005DF8047B704700BF01000F0000F0FFFFF0
:1010B80000200140002301401200001080B485B0D8
:1010C80000AF78607B6803F00703FB600B4BDB68BD
:1010D800BB60BA684FF6FF031340BB60FB681A0297
:1010E800BB681A43064B1343BB60044ABB68D36012
:1010F80000BF1437BD465DF8047B704700ED00E083
:101108000000FA0580B400AF044BDB681B0A03F04B
:1011180007031846BD465DF8047B704700ED00E004
:1011280080B483B000AF0346FB7197F90730002BFA
:101138000BDBFB7903F01F02074997F907305B09BE
:10114800012000FA02F241F8232000BF0C37BD4607
:101158005DF8047B704700BF00E100E080B483B015
:1011680000AF03463960FB7197F90730002B0ADBA3
:101178003B68DAB20C4997F907301201D2B20B4436
:1011880083F800230AE03B68DAB20849FB7903F0E8
:101198000F03043B1201D2B20B441A7600BF0C377E
:1011A800BD465DF8047B704700E100E000ED00E01B
:1011B80080B489B000AFF860B9607A60FB6803F06A
:1011C8000703FB61FB69C3F10703042B28BF042352
:1011D800BB61FB690433062B02D9FB69033B00E0C2
:1011E80000237B614FF0FF32BB6902FA03F3DA4355
:1011F800BB681A407B699A404FF0FF317B6901FA5E
:1012080003F3D9437B680B40134318462437BD4684
:101218005DF8047B7047000080B582B000AF78604D
:101228007B68013BB3F1807F01D301230FE00A4AB9
:101238007B68013B53600F214FF0FF30FFF78EFFB3
:10124800054B00229A60044B07221A6000231846B7
:101258000837BD4680BD00BF10E000E080B582B011
:1012680000AF78607868FFF729FF00BF0837BD46F0
:1012780080BD80B586B000AF0346B9607A60FB7365
:1012880000237B61FFF73EFF78617A68B968786967
:10129800FFF78EFF024697F90F3011461846FFF701
:1012A8005DFF00BF1837BD4680BD80B582B000AF76
:1012B8000346FB7197F907301846FFF731FF00BF67
:1012C8000837BD4680BD80B582B000AF78607868C9
:1012D800FFF7A2FF034618460837BD4680BD000049
:1012E80080B586B000AF786000237B61FFF758F9BE
:1012F80038617B68002B01D1012399E07B680222C9
:1013080083F835207B68002283F834207B681B68CB
:101318001A687B681B6822F001021A600FE0FFF769
:101328003FF902463B69D31A052B08D97B6820226E
:101338005A657B68032283F83520032378E07B68AD
:101348001B681B6803F00103002BE8D17B681B684E
:101358001B687B617A69384B13407B617B685A68EC
:101368007B689B681A437B68DB681A437B681B6948
:101378001A437B685B691A437B689B691A437B68DD
:10138800DB691A437B681B6A13437A6913437B61E1
:101398007B685B6A042B07D17B68DA6A7B681B6B06
:1013A80013437A6913437B617B681B687A691A6007
:1013B8007B681B685B697B617B6923F007037B6142
:1013C8007B685B6A7A6913437B617B685B6A042B81
:1013D80017D17B689B6A7A6913437B617B68DB6AF8
:1013E800002B0ED0786800F089FA0346002B08D04D
:1013F8007B6840225A657B68012283F835200123E7
:1014080016E07B681B687A695A61786800F040FAD0
:101418000346FB607B68DB6D3F229A40FB689A605D
:101428007B6800225A657B68012283F835200023F7
:1014380018461837BD4680BD3F8010F080B584B08F
:1014480000AF78607B689B6DFB60FFF7A9F8B86018
:101458007B6893F83530DBB2022B08D07B6880229A
:101468005A657B68002283F83420012352E07B68A8
:101478001B681A687B681B6822F016021A607B6872
:101488001B685A697B681B6822F080025A617B6876
:101498001B6C002B03D17B689B6C002B07D07B68EF
:1014A8001B681A687B681B6822F008021A607B6850
:1014B8001B681A687B681B6822F001021A6013E037
:1014C800FFF76EF80246BB68D31A052B0CD97B6868
:1014D80020225A657B68032283F835207B68002226
:1014E80083F83420032315E07B681B681B6803F02E
:1014F8000103002BE4D17B68DB6D3F229A40FB6837
:101508009A607B68012283F835207B68002283F883
:101518003420002318461037BD4680BD80B483B000
:1015280000AF78607B6893F83530DBB2022B04D0CB
:101538007B6880225A6501230CE07B68052283F8CA
:1015480035207B681B681A687B681B6822F00102DB
:101558001A60002318460C37BD465DF8047B7047B7
:1015680080B586B000AF78600023BB608E4B1B68E7
:101578008E4AA2FB03239B0A7B617B689B6D3B61C0
:101588003B691B68FB607B68DB6D08229A40FB683F
:101598001340002B1AD07B681B681B6803F00403F8
:1015A800002B13D07B681B681A687B681B6822F0C5
:1015B80004021A607B68DB6D08229A403B699A60D6
:1015C8007B685B6D43F001027B685A657B68DB6D65
:1015D80001229A40FB681340002B12D07B681B68DD
:1015E8005B6903F08003002B0BD07B68DB6D012265
:1015F8009A403B699A607B685B6D43F002027B68A6
:101608005A657B68DB6D04229A40FB681340002B07
:1016180012D07B681B681B6803F00203002B0BD0F9
:101628007B68DB6D04229A403B699A607B685B6D3E
:1016380043F004027B685A657B68DB6D10229A4090
:10164800FB681340002B43D07B681B681B6803F0C2
:101658000803002B3CD07B68DB6D10229A403B6965
:101668009A607B681B681B6803F48023002B18D0E2
:101678007B681B681B6803F40023002B08D17B6878
:101688001B6C002B24D07B681B6C786898471FE084
:101698007B689B6C002B1BD07B689B6C7868984799
:1016A80016E07B681B681B6803F48073002B07D166
:1016B8007B681B681A687B681B6822F008021A603E
:1016C8007B681B6C002B03D07B681B6C7868984781
:1016D8007B68DB6D20229A40FB681340002B00F0EA
:1016E8008F807B681B681B6803F01003002B00F0D9
:1016F80087807B68DB6D20229A403B699A607B6813
:1017080093F83530DBB2052B36D17B681B681A6835
:101718007B681B6822F016021A607B681B685A698E
:101728007B681B6822F080025A617B681B6C002B67
:1017380003D17B689B6C002B07D07B681B681A68F9
:101748007B681B6822F008021A607B68DB6D3F2209
:101758009A403B699A607B68012283F835207B6850
:10176800002283F834207B681B6D002B7ED07B68B9
:101778001B6D7868984779E07B681B681B6803F4E1
:101788008023002B1DD07B681B681B6803F4002393
:10179800002B0DD17B685B6C002B31D07B685B6CB8
:1017A800786898472CE000BF08000020B5814E1BE0
:1017B8007B68DB6B002B23D07B68DB6B78689847F2
:1017C8001EE07B681B681B6803F48073002B0FD135
:1017D8007B681B681A687B681B6822F010021A6015
:1017E8007B68012283F835207B68002283F8342047
:1017F8007B68DB6B002B03D07B68DB6B78689847D2
:101808007B685B6D002B32D07B685B6D03F0010356
:10181800002B22D07B68052283F835207B681B6863
:101828001A687B681B6822F001021A60BB680133E2
:10183800BB607A699A4207D37B681B681B6803F010
:101848000103002BF2D100E000BF7B68012283F87E
:1018580035207B68002283F834207B68DB6C002B02
:1018680005D07B68DB6C7868984700E000BF1837C4
:10187800BD4680BD80B483B000AF78607B6893F8C4
:101888003530DBB218460C37BD465DF8047B70472F
:1018980080B485B000AF78607B681B68DBB2103B12
:1018A800134AA2FB03231B09FB60124AFB6813447B
:1018B8001B781A467B68DA65FB68032B08D97B68B6
:1018C8001B681A460C4B13401A1D7B689A6506E084
:1018D8007B681B681A46084B13407A6893657B68D7
:1018E8009B6D18461437BD465DF8047B704700BFF2
:1018F800ABAAAAAAB46A000800FCFFFF80B485B0AE
:1019080000AF78600023FB737B689B6ABB607B68D1
:101918009B69002B1FD1BB68032B56D801A252F834
:1019280023F000BF3D1900084F1900083D190008B1
:10193800D31900087B68DB6A03F08073002B46D05C
:101948000123FB7343E07B68DB6AB3F1C07F40D1BE
:101958000123FB733DE07B689B69B3F5005F21D1F0
:10196800BB68032B37D801A252F823F08519000869
:101978008B190008851900089D1900080123FB73BD
:1019880030E07B68DB6A03F08073002B25D00123ED
:10199800FB7322E07B68DB6AB3F1C07F1FD10123B0
:1019A800FB731CE0BB68022B03D9BB68032B03D075
:1019B80018E00123FB7315E07B68DB6A03F0807392
:1019C800002B0ED00123FB730BE000BF0AE000BF21
:1019D80008E000BF06E000BF04E000BF02E000BF6F
:1019E80000E000BFFB7B18461437BD465DF8047B5A
:1019F800704700BF80B489B000AF786039600023B9
:101A0800FB6100237B6100233B610023BB61002352
:101A1800FB6175E10122FB6902FA03F37B613B6814
:101A28001B687A6913403B613A697B699A4240F0C6
:101A380064813B685B6803F00303012B05D03B68B6
:101A48005B6803F00303022B30D17B689B68BB61A2
:101A5800FB695B00032202FA03F3DB43BA69134014
:101A6800BB613B68DA68FB695B0002FA03F3BA6999
:101A78001343BB617B68BA699A607B685B68BB612A
:101A88000122FB6902FA03F3DB43BA691340BB6125
:101A98003B685B681B0903F00102FB6902FA03F368
:101AA800BA691343BB617B68BA695A603B685B6873
:101AB80003F00303032B17D07B68DB68BB61FB696A
:101AC8005B00032202FA03F3DB43BA691340BB61EC
:101AD8003B689A68FB695B0002FA03F3BA6913432F
:101AE800BB617B68BA69DA603B685B6803F0030333
:101AF800022B23D1FB69DA087B68083253F82230BD
:101B0800BB61FB6903F007039B000F2202FA03F392
:101B1800DB43BA691340BB613B681A69FB6903F090
:101B280007039B0002FA03F3BA691343BB61FB691D
:101B3800DA087B680832B96943F822107B681B68A9
:101B4800BB61FB695B00032202FA03F3DB43BA695A
:101B58001340BB613B685B6803F00302FB695B00F1
:101B680002FA03F3BA691343BB617B68BA691A6066
:101B78003B685B6803F44033002B00F0BE80664B83
:101B88005B6C654A43F480435364634B5B6C03F4BA
:101B98008043FB60FB68614AFB699B08023352F88B
:101BA8002330BB61FB6903F003039B000F2202FA99
:101BB80003F3DB43BA691340BB617B68584A93421D
:101BC80037D07B68574A934231D07B68564A934254
:101BD8002BD07B68554A934225D07B68544A934260
:101BE8001FD07B68534A934219D07B68524A93426C
:101BF80013D07B68514A93420DD07B68504A934278
:101C080007D07B684F4A934201D1092312E00A2387
:101C180010E008230EE007230CE006230AE0052362
:101C280008E0042306E0032304E0022302E0012382
:101C380000E00023FA6902F0030292009340BA69B7
:101C48001343BB613549FB699B080233BA6941F804
:101C580023203D4B9B68BB613B69DB43BA6913405A
:101C6800BB613B685B6803F48013002B03D0BA693F
:101C78003B691343BB61344ABB699360324BDB68F1
:101C8800BB613B69DB43BA691340BB613B685B6876
:101C980003F40013002B03D0BA693B691343BB61FB
:101CA800294ABB69D360284B5B68BB613B69DB434E
:101CB800BA691340BB613B685B6803F40033002BCF
:101CC80003D0BA693B691343BB611F4ABB695360C0
:101CD8001D4B1B68BB613B69DB43BA691340BB61A1
:101CE8003B685B6803F48033002B03D0BA693B6917
:101CF8001343BB61144ABB691360FB690133FB6181
:101D0800FB690F2B7FF686AE00BF00BF2437BD46A8
:101D18005DF8047B704700BF00380240003801407E
:101D2800000002400004024000080240000C02408B
:101D3800001002400014024000180240001C02403B
:101D48000020024000240240003C014080B483B0DF
:101D580000AF78600B467B8013467B707B78002B46
:101D680003D07A887B689A6103E07B881A047B68D1
:101D78009A6100BF0C37BD465DF8047B704780B49C
:101D880085B000AF78600B467B807B685B69FB6041
:101D98007A88FB6813401A04FB68D9437B880B4098
:101DA8001A437B689A6100BF1437BD465DF8047B0F
:101DB8007047000080B582B000AF0346FB80084B37
:101DC8005A69FB881340002B06D0054AFB885361EB
:101DD800FB88184600F006F800BF0837BD4680BDEE
:101DE800003C014080B483B000AF0346FB8000BFD5
:101DF8000C37BD465DF8047B7047000080B582B0A3
:101E080000AF78607B68002B01D101237FE07B68FD
:101E180093F84130DBB2002B06D17B68002283F8AF
:101E28004020786804F04AFA7B68242283F841202D
:101E38007B681B681A687B681B6822F001021A60BD
:101E48007B685A687B681B6822F070621A617B683D
:101E58001B689A687B681B6822F400429A607B685A
:101E6800DB68012B07D17B689A687B681B6842F4A2
:101E780000429A6006E07B689A687B681B6842F4B7
:101E880004429A607B68DB68022B04D17B681B687C
:101E98004FF400625A607B681B6859687B681A684F
:101EA8001D4B0B4353607B681B68DA687B681B68B3
:101EB80022F40042DA607B681A697B685B6942EA4F
:101EC80003017B689B691A027B681B680A43DA6016
:101ED8007B68D9697B681A6A7B681B680A431A6041
:101EE8007B681B681A687B681B6842F001021A60ED
:101EF8007B6800225A647B68202283F841207B6833
:101F080000221A637B68002283F8422000231846C7
:101F18000837BD4680BD00BF0080000280B584B090
:101F280000AF78607B681B689B69FB607B681B68F7
:101F38001B68BB607B685B6B002B05D07B685B6BA9
:101F4800BA68F9687868984700BF1037BD4680BD01
:101F580080B586B000AF78607B681B689B697B6141
:101F68007B681B681B683B617B6903F48073002BEB
:101F78000FD03B6903F08003002B0AD07B685B6CB1
:101F880043F001027B685A647B681B684FF48072D7
:101F9800DA617B6903F48063002B0FD03B6903F09F
:101FA8008003002B0AD07B685B6C43F008027B68D7
:101FB8005A647B681B684FF48062DA617B6903F4BA
:101FC8000073002B0FD03B6903F08003002B0AD06D
:101FD8007B685B6C43F002027B685A647B681B6811
:101FE8004FF40072DA617B685B6CFB60FB6803F09E
:101FF8000B03002B03D0F968786800F077FB00BF6B
:102008001837BD4680BD80B483B000AF786000BF8C
:102018000C37BD465DF8047B704780B483B000AFD1
:10202800786000BF0C37BD465DF8047B704780B40C
:1020380083B000AF78600B46FB7013463B8000BF4F
:102048000C37BD465DF8047B704780B483B000AFA1
:10205800786000BF0C37BD465DF8047B704780B4DC
:1020680083B000AF786000BF0C37BD465DF8047BD5
:10207800704780B483B000AF786000BF0C37BD46AE
:102088005DF8047B704780B586B000AFF860B96032
:102098007A60FB68DB6A7B61BB683B61FB6893F82D
:1020A8004030012B01D10223E1E0FB68012283F8D3
:1020B80040203B6903F02003002B08D07B6803F025
:1020C8002003002B03D03969F86800F0B5F93B69A3
:1020D80003F01003002B4BD07B6803F01003002B98
:1020E80046D0FB685B8D9BB2002B28D1FB6893F828
:1020F8004130DBB2282B08D17B69B3F1007F04D1D2
:102108003969F86800F09EFA31E0FB6893F84130CD
:10211800DBB2292B0ED17B6913F5803F0AD0FB680F
:102128001B681022DA61F86800F0D7FBF86800F045
:1021380026F91CE0FB681B681022DA618FE0FB6857
:102148001B681022DA61FB685B6C43F00402FB68D1
:102158005A647B69002B03D07B69B3F1807F7ED101
:10216800FB685B6C1946F86800F0C0FA77E076E027
:102178003B6903F00403002B2FD07B6803F00403B2
:10218800002B2AD0FB685B8D9BB2002B18D0FB6814
:102198001B685A6AFB685B6AD2B21A70FB685B6A92
:1021A8005A1CFB685A62FB681B8D013B9AB2FB689C
:1021B8001A85FB685B8D9BB2013B9AB2FB685A8516
:1021C800FB685B8D9BB2002B4BD17B6913F5803F7D
:1021D80047D0F86800F0D3F843E03B6903F0080300
:1021E800002B09D07B6803F00803002B04D0396961
:1021F800F86800F040F835E03B6903F00203002B73
:1022080030D07B6803F00203002B2BD0FB685B8D7A
:102218009BB2002B18D0FB685B6A1A78FB681B68B6
:102228009A62FB685B6A5A1CFB685A62FB685B8DA2
:102238009BB2013B9AB2FB685A85FB681B8D013B38
:102248009AB2FB681A850DE07B69B3F1807F02D0F2
:102258007B69002B06D1F86800F091F802E000BF16
:1022680000E000BFFB68002283F8402000231846E6
:102278001837BD4680BD80B584B000AF786039603E
:102288007B6893F84130DBB203F02803282B6AD12E
:102298007B681B689B691B0CDBB203F00103FB73B3
:1022A8007B681B689B691B0C9BB203F0FE03BB8118
:1022B8007B681B689B689BB2C3F309037B817B68BF
:1022C8001B68DB689BB203F0FE033B817B68DB681D
:1022D800022B38D17B89DB099AB2BB8953409BB268
:1022E80003F00603002B1CD17B89BB817B689B6CA8
:1022F8005A1C7B689A647B689B6C022B3BD17B6879
:1023080000229A647B681B680822DA617B680022D5
:1023180083F84020BA89FB7B19467868FFF787FE67
:1023280029E03B89BB814FF40041786800F017FB36
:102338007B68002283F84020BA89FB7B19467868BD
:10234800FFF775FE17E04FF40041786800F007FBCF
:102358007B68002283F84020BA89FB7B194678689D
:10236800FFF765FE07E07B681B680822DA617B6877
:10237800002283F8402000BF1037BD4680BD80B5DD
:1023880084B000AF78607B681B681B68FB607B6863
:10239800002283F84220FB6803F48043002B08D016
:1023A8007B681B681A687B681B6822F480421A6085
:1023B8000CE0FB6803F40043002B07D07B681B6824
:1023C8001A687B681B6822F400421A607B6893F8DD
:1023D8004130DBB2292B12D17B68282283F84120B7
:1023E8007B6821221A630121786800F0B8FA7B68BB
:1023F800002283F840207868FFF705FE17E07B6825
:1024080093F84130DBB22A2B11D17B68282283F85C
:1024180041207B6822221A630221786800F09FFA23
:102428007B68002283F840207868FFF7F6FD00BF3C
:102438001037BD4680BD000080B586B000AF78601B
:1024480039607B681B681B683B613B687B617B6804
:1024580093F84130FB737B681B682022DA61FB7BB1
:10246800212B02D0FB7B292B08D148F20101786887
:1024780000F075FA7B6821221A630DE0FB7B222BA2
:1024880002D0FB7B2A2B07D148F20201786800F0C2
:1024980066FA7B6822221A637B681B685A687B6825
:1024A8001B6842F400425A607B681B6859687B6865
:1024B8001A68624B0B405360786800F00EFA3B696B
:1024C80003F48043002B13D07B681B681A687B6871
:1024D8001B6822F480421A607B689B6B002B1FD01C
:1024E8007B689B6B1B685B689AB27B685A8517E0B0
:1024F8003B6903F40043002B12D07B681B681A6801
:102508007B681B6822F400421A607B68DB6B002B37
:1025180006D07B68DB6B1B685B689AB27B685A8560
:102528007B6903F00403002B20D07B6923F00403AC
:102538007B617B681B685A6A7B685B6AD2B21A70D7
:102548007B685B6A5A1C7B685A627B681B8D002B10
:102558000CD07B681B8D013B9AB27B681A857B681F
:102568005B8D9BB2013B9AB27B685A857B685B8D19
:102578009BB2002B05D07B685B6C43F004027B6840
:102588005A647B68002283F842207B6800225A63E1
:102598007B685B6C002B10D07B685B6C1946786895
:1025A80000F0A4F87B6893F84130DBB2282B41D1C6
:1025B8007969786800F046F83CE07B68DB6A13F5D7
:1025C800803F14D07868FFF7DAFE7B681C4ADA622D
:1025D8007B68202283F841207B6800221A637B688D
:1025E800002283F840207868FFF72FFD22E07B68FF
:1025F80093F84130DBB2222B0ED17B68202283F87E
:1026080041207B6800221A637B68002283F84020FF
:102618007868FFF702FD0DE07B68202283F84120EF
:102628007B6800221A637B68002283F84020786860
:10263800FFF7E9FC00BF1837BD4680BD00E800FE83
:102648000000FFFF80B582B000AF786039607B681A
:10265800254ADA627B6800221A637B68202283F8A5
:1026680041207B68002283F842207B6800225A635D
:102678003B6803F00403002B22D07B681B685A6A6E
:102688007B685B6AD2B21A707B685B6A5A1C7B688B
:102698005A627B681B8D002B12D07B681B8D013B17
:1026A8009AB27B681A857B685B8D9BB2013B9AB2B4
:1026B8007B685A857B685B6C43F004027B685A64CC
:1026C80048F20301786800F04AF97B681B68102219
:1026D800DA617B68002283F840207868FFF7B5FC50
:1026E80000BF0837BD4680BD0000FFFF80B584B03D
:1026F80000AF786039607B6893F84130FB737B6882
:10270800002283F842207B685D4ADA627B680022F7
:102718005A857B685A6C3B681A437B685A64FB7B12
:10272800282B05D0FB7B292B02D0FB7B2A2B0BD136
:102738000321786800F013F97B68282283F8412088
:102748007B68504A5A6311E048F20301786800F048
:1027580006F97B6893F84130DBB2602B03D07B68C5
:10276800202283F841207B6800225A637B681B6B18
:10277800BB607B689B6B002B39D0BB68112B02D0E8
:10278800BB68212B33D17B681B681B6803F480432B
:10279800B3F5804F07D17B681B681A687B681B6894
:1027A80022F480421A607B689B6B1846FFF762F838
:1027B8000346012B17D07B689B6B334A1A657B68ED
:1027C800002283F840207B689B6B1846FEF7A6FE24
:1027D8000346002B4DD07B689B6B1B6D7A68926B10
:1027E8001046984745E0786800F050F841E07B686B
:1027F800DB6B002B39D0BB68122B02D0BB68222BB5
:1028080033D17B681B681B6803F40043B3F5004FA2
:1028180007D17B681B681A687B681B6822F4004232
:102828001A607B68DB6B1846FFF724F80346012B18
:1028380017D07B68DB6B144A1A657B68002283F823
:1028480040207B68DB6B1846FEF768FE0346002BCA
:1028580011D07B68DB6B1B6D7A68D26B104698478A
:1028680009E0786800F012F805E0786800F00EF8E2
:1028780002E000BF00E000BF00BF1037BD4680BDCA
:102888000000FFFF8F2000082B29000880B582B0C8
:1028980000AF78607B6893F84130DBB2602B0ED1D3
:1028A8007B68202283F841207B6800221A637B68BA
:1028B800002283F840207868FFF7DBFB09E07B689B
:1028C80000221A637B68002283F840207868FFF7AB
:1028D800C6FB00BF0837BD4680BD80B483B000AFDB
:1028E80078607B681B689B6903F00203022B03D1A5
:1028F8007B681B6800229A627B681B689B6903F0EF
:102908000103012B07D07B681B689A697B681B68E9
:1029180042F001029A6100BF0C37BD465DF8047BA6
:10292800704780B584B000AF78607B689B6BFB60B4
:10293800FB689B6B002B03D0FB689B6B00221A651E
:10294800FB68DB6B002B03D0FB68DB6B00221A658E
:10295800F868FFF79BFF00BF1037BD4680BD80B405
:1029680085B000AF78600B467B800023FB607B88D6
:1029780003F00103002B0FD0FB6843F04203FB6018
:102988007B6893F84130DBB203F02803282B03D08F
:10299800FB6843F0B003FB607B8803F00203002B65
:1029A8000FD0FB6843F04403FB607B6893F8413029
:1029B800DBB203F02803282B03D0FB6843F0B003F5
:1029C800FB60B7F90230002B03DAFB6843F0B80369
:1029D800FB607B88102B03D1FB6843F09003FB60FE
:1029E8007B88202B03D1FB6843F02003FB607B88A6
:1029F800402B03D1FB6843F04003FB607B681B68F6
:102A08001968FB68DA437B681B680A401A6000BFD4
:102A18001437BD465DF8047B704780B483B000AFBF
:102A2800786039607B6893F84130DBB2202B38D16D
:102A38007B6893F84030012B01D1022332E07B6898
:102A4800012283F840207B68242283F841207B6898
:102A58001B681A687B681B6822F001021A607B6891
:102A68001B681A687B681B6822F480521A607B68AE
:102A78001B6819687B681B683A680A431A607B6898
:102A88001B681A687B681B6842F001021A607B6841
:102A9800202283F841207B68002283F8402000230D
:102AA80000E0022318460C37BD465DF8047B7047EA
:102AB80080B485B000AF786039607B6893F84130A6
:102AC800DBB2202B39D17B6893F84030012B01D140
:102AD800022333E07B68012283F840207B682422AC
:102AE80083F841207B681B681A687B681B6822F0A2
:102AF80001021A607B681B681B68FB60FB6823F493
:102B08007063FB603B681B02FA681343FB607B68D9
:102B18001B68FA681A607B681B681A687B681B6800
:102B280042F001021A607B68202283F841207B680A
:102B3800002283F84020002300E0022318461437BF
:102B4800BD465DF8047B704780B400AF054B1B6839
:102B5800044A43F48073136000BFBD465DF8047BEC
:102B6800704700BF0070004080B582B000AF0023FE
:102B78007B60234B1B6C224A43F080531364204B29
:102B88001B6C03F080533B603B681E4B1B681D4A5F
:102B980043F480331360FDF703FD786009E0FDF727
:102BA800FFFC02467B68D31AB3F57A7F01D9032369
:102BB80022E0144B5B6803F48033B3F5803FEED119
:102BC800104B1B680F4A43F400331360FDF7E8FC11
:102BD800786009E0FDF7E4FC02467B68D31AB3F598
:102BE8007A7F01D9032307E0064B5B6803F40033BF
:102BF800B3F5003FEED1002318460837BD4680BD27
:102C0800003802400070004080B586B000AF7860A0
:102C18000023FB757B68002B01D1012391E27B68BF
:102C28001B6803F00103002B00F08780964B9B681C
:102C380003F00C03042B0CD0934B9B6803F00C039C
:102C4800082B12D1904B5B6803F48003B3F5800F17
:102C58000BD18D4B1B6803F40033002B6CD07B68C1
:102C68005B68002B68D101236BE27B685B68B3F576
:102C7800803F06D1844B1B68834A43F4803313603A
:102C88002EE07B685B68002B0CD17F4B1B687E4A6B
:102C980023F4803313607C4B1B687B4A23F4802326
:102CA80013601DE07B685B68B3F5A02F0CD1764BF1
:102CB8001B68754A43F480231360734B1B68724A80
:102CC80043F4803313600BE06F4B1B686E4A23F4A8
:102CD800803313606C4B1B686B4A23F480231360AA
:102CE8007B685B68002B13D0FDF75AFC386108E05D
:102CF800FDF756FC02463B69D31A642B01D903231E
:102D08001FE2614B1B6803F40033002BF0D014E082
:102D1800FDF746FC386108E0FDF742FC02463B69D6
:102D2800D31A642B01D903230BE2574B1B6803F416
:102D38000033002BF0D100E000BF7B681B6803F074
:102D48000203002B69D0504B9B6803F00C03002B47
:102D58000BD04D4B9B6803F00C03082B1CD14A4B3E
:102D68005B6803F48003002B16D1474B1B6803F004
:102D78000203002B05D07B68DB68012B01D00123FF
:102D8800DFE1414B1B6823F0F8027B681B69DB001D
:102D98003D4913430B6040E07B68DB68002B23D080
:102DA800394B1B68384A43F001031360FDF7F8FB01
:102DB800386108E0FDF7F4FB02463B69D31A022BA1
:102DC80001D90323BDE1304B1B6803F00203002B3C
:102DD800F0D02D4B1B6823F0F8027B681B69DB00E1
:102DE800294913430B6018E0274B1B68264A23F038
:102DF80001031360FDF7D4FB386108E0FDF7D0FB51
:102E080002463B69D31A022B01D9032399E11E4BD1
:102E18001B6803F00203002BF0D17B681B6803F0EA
:102E28000803002B38D07B685B69002B19D0164B40
:102E38005B6F154A43F001035367FDF7B1FB386137
:102E480008E0FDF7ADFB02463B69D31A022B01D916
:102E5800032376E10C4B5B6F03F00203002BF0D0E9
:102E68001AE0094B5B6F084A23F001035367FDF72B
:102E780097FB38610AE0FDF793FB02463B69D31ADA
:102E8800022B03D903235CE100380240914B5B6FAE
:102E980003F00203002BEED17B681B6803F00403E8
:102EA800002B00F0A4808B4B1B6C03F08053002B8D
:102EB8000DD1884B1B6C874A43F080531364854BB4
:102EC8001B6C03F08053BB60BB680123FB75824B0E
:102ED8001B6803F48073002B18D17F4B1B687E4A54
:102EE80043F480731360FDF75BFB386108E0FDF77E
:102EF80057FB02463B69D31A642B01D9032320E10F
:102F0800754B1B6803F48073002BF0D07B689B68BB
:102F1800012B06D16F4B1B6F6E4A43F001031367F9
:102F28002DE07B689B68002B0CD16A4B1B6F694AAC
:102F380023F001031367674B1B6F664A23F00403F2
:102F480013671CE07B689B68052B0CD1614B1B6FDA
:102F5800604A43F0040313675E4B1B6F5D4A43F0FE
:102F6800010313670BE05B4B1B6F5A4A23F0010305
:102F78001367584B1B6F574A23F0040313677B688A
:102F88009B68002B15D0FDF70BFB38610AE0FDF7B5
:102F980007FB02463B69D31A41F28832934201D9B2
:102FA8000323CEE04B4B1B6F03F00203002BEED044
:102FB80014E0FDF7F5FA38610AE0FDF7F1FA024688
:102FC8003B69D31A41F28832934201D90323B8E00E
:102FD800404B1B6F03F00203002BEED1FB7D012B4E
:102FE80005D13C4B1B6C3B4A23F0805313647B6830
:102FF8009B69002B00F0A480364B9B6803F00C0300
:10300800082B6BD07B689B69022B49D1314B1B681D
:10301800304A23F080731360FDF7C2FA386108E084
:10302800FDF7BEFA02463B69D31A022B01D90323E6
:1030380087E0284B1B6803F00073002BF0D17B68F6
:10304800DA697B681B6A1A437B685B6A9B011A43CF
:103058007B689B6A5B08013B1B041A437B68DB6A3D
:103068001B0613431B4A43F000535360194B1B685C
:10307800184A43F080731360FDF792FA386108E04C
:10308800FDF78EFA02463B69D31A022B01D90323B6
:1030980057E0104B1B6803F00073002BF0D04FE093
:1030A8000C4B1B680B4A23F080731360FDF778FA0A
:1030B800386108E0FDF774FA02463B69D31A022B1F
:1030C80001D903233DE0034B1B6803F00073002B79
:1030D800F0D135E000380240007000401B4B5B68BF
:1030E800FB607B689B69012B28D0FB6803F4800296
:1030F8007B68DB699A4221D1FB6803F03F027B6859
:103108001B6A9A421AD1FA6847F6C07313407A6864
:10311800526A9201934211D1FB6803F440327B68F2
:103128009B6A5B08013B1B049A4207D1FB6803F0CA
:1031380070627B68DB6A1B069A4201D0012300E0BB
:10314800002318461837BD4680BD00BF003802402E
:1031580080B584B000AF786039600023FB607B687D
:10316800002B01D10123D0E06A4B1B6803F00F0349
:103178003A689A4210D9674B1B6823F00F026549D9
:103188003B6813430B60634B1B6803F00F033A68FB
:103198009A4201D00123B8E07B681B6803F0020360
:1031A800002B20D07B681B6803F00403002B05D09C
:1031B800594B9B68584A43F4E05393607B681B68FB
:1031C80003F00803002B05D0534B9B68524A43F485
:1031D80060439360504B9B6823F0F0027B689B68C8
:1031E8004D4913438B607B681B6803F00103002B78
:1031F80040D07B685B68012B07D1474B1B6803F401
:103208000033002B15D101237FE07B685B68022B1C
:1032180007D1414B1B6803F00073002B09D1012330
:1032280073E03D4B1B6803F00203002B01D101231F
:103238006BE0394B9B6823F003027B685B68364977
:1032480013438B60FDF7ACF9F8600AE0FDF7A8F9C5
:103258000246FB68D31A41F28832934201D903230C
:1032680053E02D4B9B6803F00C027B685B689B0066
:103278009A42EBD1274B1B6803F00F033A689A4236
:1032880010D2244B1B6823F00F0222493B681343DA
:103298000B60204B1B6803F00F033A689A4201D079
:1032A800012332E07B681B6803F00403002B08D07D
:1032B800194B9B6823F4E0527B68DB68164913437B
:1032C8008B607B681B6803F00803002B09D0124B46
:1032D8009B6823F460427B681B69DB000E4913433B
:1032E8008B6000F021F802460B4B9B681B0903F02A
:1032F8000F030A49CB5C22FA03F3094A1360094B0E
:103308001B681846FDF708F9002318461037BD4614
:1033180080BD00BF003C024000380240BC6A000883
:1033280008000020000000202DE9B04F94B000AF45
:1033380000237B640023FB6400233B640023BB64FD
:10334800794B9B6803F00C03082B0DD0082B00F277
:10335800E180002B02D0042B03D0DBE0734BBB646D
:10336800DBE0734BBB64D8E06F4B5B6803F03F0353
:103378007B646D4B5B6803F48003002B63D06A4B5E
:103388005B689B090022BB63FA63BB6BC3F308034A
:103398003B6300237B63D7E90C4522462B464FF05D
:1033A80000004FF00001590141EAD2615001024684
:1033B8000B462146511A3961294663EB01037B61AB
:1033C8004FF000024FF00003D7E904AB59468B01D8
:1033D800514643EA916351468A015146B2EB0108CE
:1033E800594663EB01094FF000024FF000034FEA22
:1033F800C90343EA58734FEAC802904699462346E0
:1034080018EB0303BB602B4649EB0303FB604FF04B
:1034180000024FF00003D7E9024529464B02214636
:1034280043EAD15321464A02104619467B6C0022D2
:10343800BB62FA62D7E90A23FCF7E2FE02460B46B2
:103448001346FB6458E0384B5B689B09002218461A
:103458001146C0F308033B6200237B62D7E9088961
:1034680042464B464FF000004FF00001590141EA37
:10347800D261500102460B464146B2EB010A494669
:1034880063EB010B4FF000024FF000034FEA8B1380
:1034980043EA9A634FEA8A12B2EB0A0463EB0B051C
:1034A8004FF000024FF00003EB0043EA5473E200D0
:1034B80014461D464346E3183B604B4645EB030361
:1034C8007B604FF000024FF00003D7E90045294622
:1034D8008B02214643EA915321468A021046194637
:1034E8007B6C0022BB61FA61D7E90623FCF788FEF2
:1034F80002460B461346FB640B4B5B681B0C03F040
:10350800030301335B003B64FA6C3B6CB2FBF3F3DF
:10351800BB6402E0054BBB6400BFBB6C1846503768
:10352800BD46BDE8B08F00BF003802400024F4005B
:1035380000127A0080B400AF034B1B681846BD46E2
:103548005DF8047B704700BF0800002080B500AF1D
:10355800FFF7F0FF0246054B9B689B0A03F0070341
:103568000349CB5C22FA03F3184680BD00380240B9
:10357800CC6A000880B500AFFFF7DCFF0246054BB8
:103588009B685B0B03F007030349CB5C22FA03F348
:10359800184680BD00380240CC6A000880B588B063
:1035A80000AF786000237B6100233B610023FB6050
:1035B8000023FB610023BB617B681B6803F00103E8
:1035C800002B12D0694B9B68684A23F40003936070
:1035D800664B9A687B685B6B644913438B607B68B6
:1035E8005B6B002B01D10123FB617B681B6803F433
:1035F8000023002B17D05D4BD3F88C3023F44012F6
:103608007B68DB6B59491343C1F88C307B68DB6BF3
:10361800B3F5801F01D10123FB617B68DB6B002BB5
:1036280001D10123BB617B681B6803F48013002B65
:1036380017D04E4BD3F88C3023F440027B681B6CB8
:103648004A491343C1F88C307B681B6CB3F5800F73
:1036580001D10123FB617B681B6C002B01D1012385
:10366800BB617B681B6803F08073002B01D00123CA
:10367800FB617B681B6803F02003002B00F08B8044
:103688003A4B1B6C394A43F080531364374B1B6C1D
:1036980003F08053BB60BB68354B1B68344A43F466
:1036A80080731360FCF77CFF786108E0FCF778FF13
:1036B80002467B69D31A642B01D9032357E32C4BA9
:1036C8001B6803F48073002BF0D0284B1B6F03F4A6
:1036D80040733B613B69002B35D07B681B6B03F45F
:1036E80040733A699A422ED0204B1B6F23F44073E3
:1036F8003B611E4B1B6F1D4A43F4803313671B4B02
:103708001B6F1A4A23F480331367184A3B691367FF
:10371800164B1B6F03F00103012B14D1FCF740FF7C
:1037280078610AE0FCF73CFF02467B69D31A41F254
:103738008832934201D9032319E30C4B1B6F03F022
:103748000203002BEED07B681B6B03F44073B3F5C8
:10375800407F11D1054B9B6823F4F8127B68196BE5
:10376800044B0B40014913438B600BE000380240C7
:1037780000700040FFFCFF0FAA4B9B68A94A23F486
:10378800F8139360A74B1A6F7B681B6BC3F30B038B
:10379800A44913430B677B681B6803F01003002BD5
:1037A80010D0A04BD3F88C309E4A23F08073C2F817
:1037B8008C309C4BD3F88C207B689B6B99491343C6
:1037C800C1F88C307B681B6803F48043002B0AD057
:1037D800944BD3F8903023F440327B685B6E914968
:1037E8001343C1F890307B681B6803F40043002B37
:1037F8000AD08C4BD3F8903023F440227B689B6E20
:1038080088491343C1F890307B681B6803F4803300
:10381800002B0AD0834BD3F8903023F440127B68F6
:10382800DB6E80491343C1F890307B681B6803F452
:103838000033002B0AD07B4BD3F8903023F440029E
:103848007B681B6F77491343C1F890307B681B680E
:1038580003F04003002B0AD0724BD3F8903023F0CA
:1038680003027B685B6C6F491343C1F890307B6837
:103878001B6803F08003002B0AD06A4BD3F8903002
:1038880023F00C027B689B6C66491343C1F89030A7
:103898007B681B6803F48073002B0AD0614BD3F854
:1038A800903023F030027B68DB6C5E491343C1F82B
:1038B80090307B681B6803F40073002B0AD0594BC7
:1038C800D3F8903023F0C0027B681B6D5549134331
:1038D800C1F890307B681B6803F48063002B0AD022
:1038E800504BD3F8903023F440727B685B6D4D49A0
:1038F8001343C1F890307B681B6803F40063002B06
:103908000AD0484BD3F8903023F440627B689B6D13
:1039180044491343C1F890307B681B6803F4805313
:10392800002B0AD03F4BD3F8903023F440527B68E9
:10393800DB6D3C491343C1F890307B681B6803F486
:103948000053002B0AD0374BD3F8903023F4404271
:103958007B681B6E33491343C1F890307B681B6842
:1039680003F48003002B0AD02E4BD3F8903023F0B9
:1039780080627B689B6F2B491343C1F890307B684A
:103988001B6803F40013002B11D0264BD3F890309A
:1039980023F000627B68DB6F22491343C1F8903043
:1039A8007B68DB6FB3F1006F01D10123BB617B68DA
:1039B8001B6803F00803002B01D00123BB617B685F
:1039C8001B6803F48023002B0AD0164BD3F89030E1
:1039D80023F040727B685B6F12491343C1F8903043
:1039E8007B681B6803F40003002B0BD00D4BD3F846
:1039F800903023F080527B68D3F880300949134314
:103A0800C1F89030FB69012B06D07B681B6803F076
:103A18000073002B00F0D980024B1B68014A23F089
:103A2800806301E0003802401360FCF7B9FD78615B
:103A380008E0FCF7B5FD02467B69D31A642B01D96F
:103A4800032394E16C4B1B6803F00063002BF0D157
:103A58007B681B6803F00103002B21D07B685B6B3C
:103A6800002B1DD1644BD3F884301B0C03F00303E7
:103A78003B61614BD3F884301B0E03F00F03FB60EE
:103A88007B685B689A013B691B041A43FB681B0649
:103A98001A437B689B681B0757491343C1F8843056
:103AA8007B681B6803F40023002B04D07B68DB6B66
:103AB800B3F5801F0AD07B681B6803F48013002BC2
:103AC8002ED07B681B6CB3F5800F29D14A4BD3F8F5
:103AD80084301B0C03F003033B61474BD3F884305D
:103AE8001B0F03F00703FB607B685B689A013B6967
:103AF8001B041A437B68DB681B061A43FB681B0719
:103B08003D491343C1F884303B4BD3F88C3023F044
:103B18001F027B685B6A013B37491343C1F88C304D
:103B28007B681B6803F08073002B1DD0324BD3F8E1
:103B380084301B0E03F00F033B612F4BD3F8843006
:103B48001B0F03F00703FB607B685B689A017B68C7
:103B58001B691B041A433B691B061A43FB681B07B6
:103B680025491343C1F884307B681B6803F0007350
:103B7800002B11D07B685B689A017B681B691B046A
:103B88001A437B68DB681B061A437B689B681B0724
:103B980019491343C1F88430174B1B68164A43F080
:103BA80080631360FCF7FCFC786108E0FCF7F8FC24
:103BB80002467B69D31A642B01D90323D7E00E4B45
:103BC8001B6803F00063002BF0D0BB69012B40F0A9
:103BD800CD80094B1B68084A23F080531360FCF71B
:103BE800DFFC78610AE0FCF7DBFC02467B69D31A4C
:103BF800642B03D90323BAE0003802405E4B1B68EC
:103C080003F00053B3F1005FEDD07B681B6803F449
:103C18000023002B03D07B68DB6B002B09D07B686B
:103C28001B6803F48013002B2ED07B681B6C002BC1
:103C38002AD1514BD3F888301B0C03F003033B61A6
:103C48004D4BD3F888301B0F03F00703FB607B68EC
:103C58005B699A013B691B041A437B689B691B06D5
:103C68001A43FB681B0744491343C1F88830424B89
:103C7800D3F88C3023F4F8527B689B6A013B1B0213
:103C88003D491343C1F88C307B681B6803F400136B
:103C9800002B22D07B68DB6FB3F1006F1DD1364B50
:103CA800D3F888301B0E03F00F033B61324BD3F877
:103CB80088301B0F03F00703FB607B685B699A0180
:103CC8007B681B6A1B041A433B691B061A43FB6883
:103CD8001B0729491343C1F888307B681B6803F028
:103CE8000803002B28D0244BD3F888301B0E03F090
:103CF8000F033B61204BD3F888301B0C03F0030300
:103D0800FB607B685B699A01FB681B041A433B698B
:103D18001B061A437B68DB691B0717491343C1F865
:103D28008830154BD3F88C3023F440327B68DB6A3B
:103D380011491343C1F88C300F4B1B680E4A43F0EE
:103D480080531360FCF72CFC786108E0FCF728FC32
:103D580002467B69D31A642B01D9032307E0064B7B
:103D68001B6803F00053B3F1005FEFD1002318463E
:103D78002037BD4680BD00BF0038024080B582B004
:103D880000AF78607B68002B01D1012349E07B6894
:103D980093F83D30DBB2002B06D17B68002283F814
:103DA8003C20786802F010FD7B68022283F83D20F1
:103DB8007B681A687B6804331946104600F0C6FB16
:103DC8007B68012283F848207B68012283F83E2023
:103DD8007B68012283F83F207B68012283F840201A
:103DE8007B68012283F841207B68012283F8422006
:103DF8007B68012283F843207B68012283F84420F2
:103E08007B68012283F845207B68012283F84620DD
:103E18007B68012283F847207B68012283F83D20D4
:103E2800002318460837BD4680BD80B582B000AF74
:103E380078607B68002B01D1012349E07B6893F807
:103E48003D30DBB2002B06D17B68002283F83C2092
:103E5800786800F041F87B68022283F83D207B688F
:103E68001A687B6804331946104600F06FFB7B68BC
:103E7800012283F848207B68012283F83E207B6872
:103E8800012283F83F207B68012283F840207B6869
:103E9800012283F841207B68012283F842207B6855
:103EA800012283F843207B68012283F844207B6841
:103EB800012283F845207B68012283F846207B682D
:103EC800012283F847207B68012283F83D200023E4
:103ED80018460837BD4680BD80B483B000AF78600F
:103EE80000BF0C37BD465DF8047B704780B582B0D3
:103EF80000AF78607B681B681B6903F00203022B24
:103F080022D17B681B68DB6803F00203022B1BD1FC
:103F18007B681B686FF002021A617B6801221A77BE
:103F28007B681B689B6903F00303002B03D0786848
:103F380000F0EEFA05E0786800F0E0FA786800F042
:103F4800F1FA7B6800221A777B681B681B6903F00B
:103F58000403042B22D17B681B68DB6803F004038D
:103F6800042B1BD17B681B686FF004021A617B6805
:103F780002221A777B681B689B6903F44073002B45
:103F880003D0786800F0C4FA05E0786800F0B6FA63
:103F9800786800F0C7FA7B6800221A777B681B688C
:103FA8001B6903F00803082B22D17B681B68DB68B8
:103FB80003F00803082B1BD17B681B686FF008020D
:103FC8001A617B6804221A777B681B68DB6903F037
:103FD8000303002B03D0786800F09AFA05E07868AC
:103FE80000F08CFA786800F09DFA7B6800221A7756
:103FF8007B681B681B6903F01003102B22D17B68B8
:104008001B68DB6803F01003102B1BD17B681B684F
:104018006FF010021A617B6808221A777B681B68A8
:10402800DB6903F44073002B03D0786800F070FA62
:1040380005E0786800F062FA786800F073FA7B6847
:1040480000221A777B681B681B6903F00103012BA8
:104058000ED17B681B68DB6803F00103012B07D1D5
:104068007B681B686FF001021A61786800F03CFAFF
:104078007B681B681B6903F08003802B0ED17B686B
:104088001B68DB6803F08003802B07D17B681B6803
:104098006FF080021A61786800F088FE7B681B6800
:1040A8001B6903F48073B3F5807F0ED17B681B68AE
:1040B800DB6803F08003802B07D17B681B686FF4F3
:1040C80080721A61786800F07BFE7B681B681B6948
:1040D80003F04003402B0ED17B681B68DB6803F0BC
:1040E8004003402B07D17B681B686FF040021A61C0
:1040F800786800F021FA7B681B681B6903F02003CD
:10410800202B0ED17B681B68DB6803F02003202B73
:1041180007D17B681B686FF020021A61786800F08D
:104128003BFE00BF0837BD4680BD000080B586B0A5
:1041380000AFF860B9607A600023FB75FB6893F8FC
:104148003C30012B01D10223FFE0FB68012283F8F8
:104158003C207B68142B00F2F08001A252F823F077
:10416800BD41000843430008434300084343000897
:10417800FD41000843430008434300084343000847
:104188003F420008434300084343000843430008F4
:104198007F420008434300084343000843430008A4
:1041A800C142000843430008434300084343000852
:1041B80001430008FB681B68B968184600F066FAF6
:1041C800FB681B689A69FB681B6842F008029A61E1
:1041D800FB681B689A69FB681B6822F004029A61F5
:1041E800FB681B689969BB681A69FB681B680A4306
:1041F8009A61A5E0FB681B68B968184600F0B8FA30
:10420800FB681B689A69FB681B6842F400629A6144
:10421800FB681B689A69FB681B6822F480629A61D4
:10422800FB681B689969BB681B691A02FB681B68F5
:104238000A439A6184E0FB681B68B968184600F075
:104248000FFBFB681B68DA69FB681B6842F0080211
:10425800DA61FB681B68DA69FB681B6822F00402F4
:10426800DA61FB681B68D969BB681A69FB681B6857
:104278000A43DA6164E0FB681B68B968184600F015
:1042880065FBFB681B68DA69FB681B6842F400621F
:10429800DA61FB681B68DA69FB681B6822F48062D4
:1042A800DA61FB681B68D969BB681B691A02FB687D
:1042B8001B680A43DA6143E0FB681B68B968184663
:1042C80000F09CFBFB681B685A6DFB681B6842F09A
:1042D80008025A65FB681B685A6DFB681B6822F068
:1042E80004025A65FB681B68596DBB681A69FB684C
:1042F8001B680A435A6523E0FB681B68B9681846BF
:1043080000F0CEFBFB681B685A6DFB681B6842F423
:1043180000625A65FB681B685A6DFB681B6822F4CB
:1043280080625A65FB681B68596DBB681B691A0275
:10433800FB681B680A435A6502E00123FB7500BF4E
:10434800FB68002283F83C20FB7D18461837BD46E1
:1043580080BD00BF80B584B000AF786039600023AD
:10436800FB737B6893F83C30012B01D10223B4E046
:104378007B68012283F83C207B68022283F83D2079
:104388007B681B689B68BB60BA68564B1340BB6070
:10439800BB6823F47F43BB607B681B68BA689A607C
:1043A8003B681B68B3F5005F3ED0B3F5005F00F2D1
:1043B8008780B3F5805F00F08680B3F5805F7FD893
:1043C800702B1AD0702B7BD8602B50D0602B77D8ED
:1043D800502B3CD0502B73D8402B58D0402B6FD843
:1043E800302B64D0302B6BD8202B60D0202B67D893
:1043F800002B5CD0102B5AD062E07B6818683B68B1
:1044080099683B685A683B68DB6800F017FC7B6872
:104418001B689B68BB60BB6843F07703BB607B6825
:104428001B68BA689A604FE07B6818683B689968AF
:104438003B685A683B68DB6800F000FC7B681B68D7
:104448009A687B681B6842F480429A603CE07B680B
:1044580018683B6859683B68DB681A4600F074FBCB
:104468007B681B685021184600F0CDFB2CE07B6868
:1044780018683B6859683B68DB681A4600F093FB8C
:104488007B681B686021184600F0BDFB1CE07B6858
:1044980018683B6859683B68DB681A4600F054FBAB
:1044A8007B681B684021184600F0ADFB0CE07B6878
:1044B8001A683B681B681946104600F0A4FB03E025
:1044C8000123FB7300E000BF7B68012283F83D20D5
:1044D8007B68002283F83C20FB7B18461037BD46DA
:1044E80080BD00BF88FFFEFF80B483B000AF786056
:1044F80000BF0C37BD465DF8047B704780B483B0BD
:1045080000AF786000BF0C37BD465DF8047B70478C
:1045180080B483B000AF786000BF0C37BD465DF84B
:10452800047B704780B483B000AF786000BF0C375D
:10453800BD465DF8047B704780B483B000AF7860F7
:1045480000BF0C37BD465DF8047B704780B485B06A
:1045580000AF786039607B681B68FB607B68404A05
:10456800934213D07B68B3F1804F0FD07B683D4AEC
:1045780093420BD07B683C4A934207D07B683B4A06
:10458800934203D07B683A4A934208D1FB6823F0F0
:104598007003FB603B685B68FA681343FB607B68E9
:1045A8002F4A93422BD07B68B3F1804F27D07B688A
:1045B8002C4A934223D07B682B4A93421FD07B68B6
:1045C8002A4A93421BD07B68294A934217D07B68BA
:1045D800284A934213D07B68274A93420FD07B68BE
:1045E800264A93420BD07B68254A934207D07B68C2
:1045F800244A934203D07B68234A934208D1FB683C
:1046080023F44073FB603B68DB68FA681343FB6084
:10461800FB6823F080023B685B691343FB607B689F
:10462800FA681A603B689A687B68DA623B681A68BD
:104638007B689A627B680A4A934203D07B680C4A7B
:10464800934203D13B681A697B681A637B6801222D
:104658005A6100BF1437BD465DF8047B704700BF40
:10466800000001400004004000080040000C004029
:10467800000401400040014000440140004801405E
:1046880000180040001C00400020004080B487B0A3
:1046980000AF786039607B681B6A23F001027B6891
:1046A8001A627B681B6A7B617B685B683B617B681D
:1046B8009B69FB60FA682B4B1340FB60FB6823F097
:1046C8000303FB603B681B68FA681343FB607B6964
:1046D80023F002037B613B689B687A6913437B6123
:1046E8007B68214A934203D07B68204A93420CD1CD
:1046F8007B6923F008037B613B68DB687A691343B5
:104708007B617B6923F004037B617B68164A9342D3
:1047180003D07B68154A934211D13B6923F4807317
:104728003B613B6923F400733B613B685B693A6911
:1047380013433B613B689B693A6913433B617B6860
:104748003A695A607B68FA689A613B685A687B687C
:104758005A637B687A691A6200BF1C37BD465DF8E8
:10476800047B70478FFFFEFF0000014000040140FA
:1047780080B487B000AF786039607B681B6A23F02B
:1047880010027B681A627B681B6A7B617B685B68C6
:104798003B617B689B69FB60FA682E4B1340FB60AA
:1047A800FB6823F44073FB603B681B681B02FA68D4
:1047B8001343FB607B6923F020037B613B689B68A4
:1047C8001B017A6913437B617B68234A934203D0B8
:1047D8007B68224A93420DD17B6923F080037B6179
:1047E8003B68DB681B017A6913437B617B6923F0B3
:1047F80040037B617B68184A934203D07B68174A61
:10480800934213D13B6923F480633B613B6923F4F2
:1048180000633B613B685B699B003A6913433B61FA
:104828003B689B699B003A6913433B617B683A6923
:104838005A607B68FA689A613B685A687B689A6331
:104848007B687A691A6200BF1C37BD465DF8047B35
:10485800704700BFFF8FFFFE0000014000040140C9
:1048680080B487B000AF786039607B681B6A23F436
:1048780080727B681A627B681B6A7B617B685B68F5
:104888003B617B68DB69FB60FA682D4B1340FB607A
:10489800FB6823F00303FB603B681B68FA6813435B
:1048A800FB607B6923F400737B613B689B681B0298
:1048B8007A6913437B617B68224A934203D07B6801
:1048C800214A93420DD17B6923F400637B613B68E5
:1048D800DB681B027A6913437B617B6923F480637D
:1048E8007B617B68174A934203D07B68164A9342E0
:1048F80013D13B6923F480533B613B6923F4005394
:104908003B613B685B691B013A6913433B613B6848
:104918009B691B013A6913433B617B683A695A609A
:104928007B68FA68DA613B685A687B68DA637B6897
:104938007A691A6200BF1C37BD465DF8047B704770
:104948008FFFFEFF000001400004014080B487B0E3
:1049580000AF786039607B681B6A23F480527B68FB
:104968001A627B681B6A3B617B685B687B617B685A
:10497800DB69FB60FA681E4B1340FB60FB6823F49D
:104988004073FB603B681B681B02FA681343FB60BB
:104998003B6923F400533B613B689B681B033A69FE
:1049A80013433B617B68134A934203D07B68124AE6
:1049B800934209D17B6923F480437B613B685B693F
:1049C8009B017A6913437B617B687A695A607B68CB
:1049D800FA68DA613B685A687B681A647B683A69E6
:1049E8001A6200BF1C37BD465DF8047B704700BFE4
:1049F800FF8FFFFE000001400004014080B487B033
:104A080000AF786039607B681B6A23F480327B686A
:104A18001A627B681B6A3B617B685B687B617B68A9
:104A28005B6DFB60FA681B4B1340FB603B681B68BF
:104A3800FA681343FB603B6923F400333B613B682E
:104A48009B681B043A6913433B617B68124A934293
:104A580003D07B68114A934209D17B6923F48033E0
:104A68007B613B685B691B027A6913437B617B68E6
:104A78007A695A607B68FA685A653B685A687B6845
:104A88009A657B683A691A6200BF1C37BD465DF8B3
:104A9800047B70478FFFFEFF0000014000040140C7
:104AA80080B487B000AF786039607B681B6A23F4F4
:104AB80080127B681A627B681B6A3B617B685B6853
:104AC8007B617B685B6DFB60FA681C4B1340FB6085
:104AD8003B681B681B02FA681343FB603B6923F4BD
:104AE80000133B613B689B681B053A6913433B61B4
:104AF8007B68134A934203D07B68124A934209D1D8
:104B08007B6923F480237B613B685B699B027A693C
:104B180013437B617B687A695A607B68FA685A65D7
:104B28003B685A687B68DA657B683A691A6200BF35
:104B38001C37BD465DF8047B704700BFFF8FFFFE42
:104B4800000001400004014080B487B000AFF86065
:104B5800B9607A60FB681B6A7B61FB681B6A23F09B
:104B68000102FB681A62FB689B693B613B6923F0A1
:104B7800F0033B617B681B013A6913433B617B6926
:104B880023F00A037B617A69BB6813437B61FB6886
:104B98003A699A61FB687A691A6200BF1C37BD4698
:104BA8005DF8047B704780B487B000AFF860B960E7
:104BB8007A60FB681B6A23F01002FB681A62FB68C4
:104BC8009B697B61FB681B6A3B617B6923F47043CB
:104BD8007B617B681B037A6913437B613B6923F024
:104BE800A0033B61BB681B013A6913433B61FB6847
:104BF8007A699A61FB683A691A6200BF1C37BD4638
:104C08005DF8047B704780B485B000AF7860396088
:104C18007B689B68FB60FB6823F07003FB603A6865
:104C2800FB68134343F00703FB607B68FA689A60EC
:104C380000BF1437BD465DF8047B704780B487B069
:104C480000AFF860B9607A603B60FB689B687B6185
:104C58007B6923F47F437B613B681A027B681A43B4
:104C6800BB6813437A6913437B61FB687A699A606E
:104C780000BF1C37BD465DF8047B704780B485B023
:104C880000AF786039607B6893F83C30012B01D124
:104C980002236DE07B68012283F83C207B680222B6
:104CA80083F83D207B681B685B68FB607B681B683A
:104CB8009B68BB607B681B68304A934204D07B6862
:104CC8001B682F4A934208D1FB6823F47003FB60EA
:104CD8003B685B68FA681343FB60FB6823F070036A
:104CE800FB603B681B68FA681343FB607B681B68C2
:104CF800FA685A607B681B68204A934222D07B6816
:104D08001B68B3F1804F1DD07B681B681D4A934216
:104D180018D07B681B681C4A934213D07B681B68B9
:104D28001A4A93420ED07B681B68154A934209D0F1
:104D38007B681B68164A934204D07B681B68154A37
:104D480093420CD1BB6823F08003BB603B689B682F
:104D5800BA681343BB607B681B68BA689A607B6853
:104D6800012283F83D207B68002283F83C20002341
:104D780018461437BD465DF8047B704700000140B3
:104D8800000401400004004000080040000C0040FE
:104D9800004001400018004080B483B000AF786044
:104DA80000BF0C37BD465DF8047B704780B483B004
:104DB80000AF786000BF0C37BD465DF8047B7047D4
:104DC80080B483B000AF786000BF0C37BD465DF893
:104DD800047B704780B582B000AF78607B68002B99
:104DE80001D1012340E07B68DB6F002B06D17B6893
:104DF800002283F87820786801F08EFD7B682422F1
:104E0800DA677B681B681A687B681B6822F00102F6
:104E18001A60786800F01EFB0346012B01D10123BC
:104E280022E07B685B6A002B02D0786800F076FD90
:104E38007B681B685A687B681B6822F490425A603A
:104E48007B681B689A687B681B6822F02A029A6054
:104E58007B681B681A687B681B6842F001021A604D
:104E6800786800F0FDFD034618460837BD4680BD4A
:104E780080B5BAB000AF78607B681B68DB69C7F89B
:104E8800E4307B681B681B68C7F8E0307B681B68E8
:104E98009B68C7F8DC30D7F8E42040F60F031340CE
:104EA800C7F8D830D7F8D830002B15D1D7F8E43068
:104EB80003F02003002B0FD0D7F8E03003F02003D5
:104EC800002B09D07B689B6E002B00F097827B68D3
:104ED8009B6E7868984791E2D7F8D830002B00F09D
:104EE8001781D7F8DC3003F00103002B06D1D7F87F
:104EF800E020854B1340002B00F00A81D7F8E430FE
:104F080003F00103002B11D0D7F8E03003F48073CD
:104F1800002B0BD07B681B6801221A627B68D3F8D0
:104F2800843043F001027B68C3F88420D7F8E4306A
:104F380003F00203002B11D0D7F8DC3003F0010393
:104F4800002B0BD07B681B6802221A627B68D3F89F
:104F5800843043F004027B68C3F88420D7F8E43037
:104F680003F00403002B11D0D7F8DC3003F0010361
:104F7800002B0BD07B681B6804221A627B68D3F86D
:104F8800843043F002027B68C3F88420D7F8E43009
:104F980003F00803002B17D0D7F8E03003F0200304
:104FA800002B05D1D7F8DC3003F00103002B0BD020
:104FB8007B681B6808221A627B68D3F8843043F048
:104FC80008027B68C3F88420D7F8E43003F4006350
:104FD800002B12D0D7F8E03003F08063002B0CD000
:104FE8007B681B684FF400621A627B68D3F88430D0
:104FF80043F020027B68C3F884207B68D3F88430B0
:10500800002B00F0FD81D7F8E43003F02003002BDB
:105018000DD0D7F8E03003F02003002B07D07B68D1
:105028009B6E002B03D07B689B6E786898477B68E3
:10503800D3F88430C7F8D4307B681B689B6803F0CA
:105048004003402B05D0D7F8D43003F02803002BB9
:105058004FD0786800F001FE7B681B689B6803F0FE
:105068004003402B41D17B681B680833C7F89C304C
:10507800D7F89C3053E8003FC7F89830D7F89830F5
:1050880023F04003C7F8D0307B681B680833D7F893
:10509800D020C7F8A820C7F8A430D7F8A410D7F8AC
:1050A800A82041E80023C7F8A030D7F8A030002B8B
:1050B800D9D17B685B6F002B13D07B685B6F134A79
:1050C8001A657B685B6F1846FCF728FA0346002BC5
:1050D80017D07B685B6F1B6D7A68526F10469847D4
:1050E8000FE0786800F0A0F90BE0786800F09CF910
:1050F80007E0786800F098F97B680022C3F88420FC
:105108007EE100BF7CE100BF200100042B5D0008A8
:105118007B681B6E012B40F04C81D7F8E43003F01C
:105128001003002B00F04581D7F8E03003F010039E
:10513800002B00F03E817B681B6810221A627B6896
:105148001B689B6803F04003402B40F0B6807B68E7
:105158005B6F1B685B68A7F8BE30B7F8BE30002BE2
:1051680000F050817B68B3F85830B7F8BE209A42F7
:1051780080F048817B68B7F8BE20A3F85A207B6886
:105188005B6FDB69B3F5807F00F086807B681B6806
:10519800C7F88830D7F8883053E8003FC7F884301C
:1051A800D7F8843023F48073C7F8B8307B681B685D
:1051B8001A46D7F8B830C7F89430C7F89020D7F80F
:1051C8009010D7F8942041E80023C7F88C30D7F81E
:1051D8008C30002BDAD17B681B6808337B677B6FC8
:1051E80053E8003F3B673B6F23F00103C7F8B43037
:1051F8007B681B680833D7F8B420C7F88020FB67A2
:10520800F96FD7F8802041E80023BB67BB6F002BFC
:10521800E1D17B681B6808333B663B6E53E8003F6F
:10522800FB65FB6D23F04003C7F8B0307B681B6853
:105238000833D7F8B020FA66BB66B96EFA6E41E853
:1052480000237B667B6E002BE3D17B682022C3F8AA
:1052580080207B6800221A667B681B68FB64FB6CF5
:1052680053E8003FBB64BB6C23F01003C7F8AC30B5
:105278007B681B681A46D7F8AC30BB657A65796DD0
:10528800BA6D41E800233B653B6D002BE4D17B6898
:105298005B6F1846FCF7D2F87B6802225A667B6877
:1052A800B3F858207B68B3F85A309BB2D31A9BB234
:1052B8001946786800F0C2F8A4E07B68B3F8582073
:1052C8007B68B3F85A309BB2D31AA7F8CE307B6804
:1052D800B3F85A309BB2002B00F09680B7F8CE3066
:1052E800002B00F091807B681B68BB63BB6B53E8A5
:1052F800003F7B637B6B23F49073C7F8C8307B68EF
:105308001B681A46D7F8C8307B643A64396C7A6CE3
:1053180041E80023FB63FB6B002BE4D17B681B682F
:1053280008337B627B6A53E8003F3B623B6A23F0A9
:105338000103C7F8C4307B681B680833D7F8C4205A
:105348003A63FB62F96A3A6B41E80023BB62BB6AC5
:10535800002BE3D17B682022C3F880207B680022E1
:105368001A667B6800229A667B681B683B613B690A
:1053780053E8003FFB60FB6823F01003C7F8C03018
:105388007B681B681A46D7F8C030FB61BA61B969F7
:10539800FA6941E800237B617B69002BE4D17B68D3
:1053A80002225A66B7F8CE301946786800F046F8F7
:1053B8002AE0D7F8E43003F08003002B0ED0D7F8AA
:1053C800E03003F08003002B08D07B68DB6E002BF5
:1053D8001CD07B68DB6E7868984717E0D7F8E43014
:1053E80003F04003002B12D0D7F8E03003F040035D
:1053F800002B0CD0786800F0AAFC08E000BF06E09B
:1054080000BF04E000BF02E000BF00E000BFE837D3
:10541800BD4680BD80B483B000AF786000BF0C3754
:10542800BD465DF8047B704780B483B000AF7860F8
:1054380000BF0C37BD465DF8047B704780B483B06D
:1054480000AF78600B467B8000BF0C37BD465DF827
:10545800047B704780B588B000AF78600023BB77C5
:105468007B689A687B681B691A437B685B691A4387
:105478007B68DB6913437B617B681B681A68A64BF2
:1054880013407A68126879690B4313607B681B685C
:105498005B6823F440517B68DA687B681B680A43C1
:1054A8005A607B689B697B617B681B6A7A691343D6
:1054B8007B617B681B689B6823F430617B681B6891
:1054C8007A690A439A607B681B68944A934220D1A0
:1054D800934BD3F8903003F00303032B16D801A2A3
:1054E80052F823F0FD540008095500080355000838
:1054F8000F5500080123FB7750E10223FB774DE1AC
:105508000423FB774AE10823FB7747E11023FB7765
:1055180044E17B681B68834A934232D1804BD3F8BD
:10552800903003F00C030C2B28D801A252F823F07A
:105538006D550008855500088555000885550008F3
:1055480079550008855500088555000885550008D7
:1055580073550008855500088555000885550008CD
:105568007F5500080023FB7718E10223FB7715E13C
:105578000423FB7712E10823FB770FE11023FB7765
:105588000CE17B681B68684A934220D1644BD3F8CE
:10559800903003F03003302B13D0302B14D8202B4D
:1055A80009D0202B10D8002B02D0102B06D00BE0EE
:1055B8000023FB77F2E00223FB77EFE00423FB777D
:1055C800ECE00823FB77E9E01023FB77E6E07B6853
:1055D8001B68564A934220D1514BD3F8903003F0C0
:1055E800C003C02B13D0C02B14D8802B09D0802B1C
:1055F80010D8002B02D0402B06D00BE00023FB77FD
:10560800CCE00223FB77C9E00423FB77C6E008233C
:10561800FB77C3E01023FB77C0E07B681B68444A34
:10562800934225D13E4BD3F8903003F44073B3F541
:10563800407F17D0B3F5407F17D8B3F5007F0BD064
:10564800B3F5007F11D8002B03D0B3F5807F06D0C7
:105658000BE00023FB77A1E00223FB779EE0042305
:10566800FB779BE00823FB7798E01023FB7795E016
:105678007B681B682F4A934225D1294BD3F8903079
:1056880003F44063B3F5406F17D0B3F5406F17D8F4
:10569800B3F5006F0BD0B3F5006F11D8002B03D012
:1056A800B3F5806F06D00BE00123FB7776E0022389
:1056B800FB7773E00423FB7770E00823FB776DE04A
:1056C8001023FB776AE07B681B681B4A934238D13A
:1056D800134BD3F8903003F44053B3F5405F17D021
:1056E800B3F5405F2AD8B3F5005F0BD0B3F5005F80
:1056F80024D8002B03D0B3F5805F06D01EE000232A
:10570800FB774BE00223FB7748E00423FB7745E077
:105718000823FB7742E000BFF369FFEF0010014068
:10572800003802400044004000480040004C00405F
:105738000050004000140140007800401023FB771F
:105748002CE07B681B68724A934225D1714BD3F8D1
:10575800903003F44043B3F5404F17D0B3F5404FB2
:1057680017D8B3F5004F0BD0B3F5004F11D8002B65
:1057780003D0B3F5804F06D00BE00023FB770DE094
:105788000223FB770AE00423FB7707E00823FB7773
:1057980004E01023FB7701E01023FB777B68DB69CB
:1057A800B3F5004F5BD1FB7F082B28D801A252F834
:1057B80023F000BFE1570008E9570008F157000837
:1057C80007580008F7570008075800080758000846
:1057D80007580008FF570008FDF7B8FEB86113E046
:1057E800FDF7C8FEB8610FE04B4BBB610CE0FDF75D
:1057F8009BFDB86108E04FF40043BB6104E000235F
:10580800BB610123BB7700BFBB69002B74D0BB69A8
:105818005A007B685B685B081A447B685B68B2FB6C
:10582800F3F33B613B690F2B16D93B69B3F5803F16
:1058380012D23B699BB223F00F03FB813B695B08E3
:105848009BB203F007039AB2FB891343FB817B6881
:105858001B68FA89DA604FE00123BB774CE0FB7FD5
:10586800082B28D801A252F823F000BF9958000845
:10587800A1580008A9580008BF580008AF580008E8
:10588800BF580008BF580008BF580008B75800089C
:10589800FDF75CFEB86113E0FDF76CFEB8610FE040
:1058A8001D4BBB610CE0FDF73FFDB86108E04FF40C
:1058B8000043BB6104E00023BB610123BB7700BF49
:1058C800BB69002B18D07B685B685A08BB691A440F
:1058D8007B685B68B2FBF3F33B613B690F2B09D92B
:1058E8003B69B3F5803F05D23B699AB27B681B6878
:1058F800DA6001E00123BB777B6800229A667B6847
:105908000022DA66BB7F18462037BD4680BD00BF3F
:10591800007C0040003802400024F40080B483B0CA
:1059280000AF78607B685B6A03F00103002B0AD044
:105938007B681B685B6823F400317B689A6A7B6824
:105948001B680A435A607B685B6A03F00203002BFA
:105958000AD07B681B685B6823F480317B68DA6A4D
:105968007B681B680A435A607B685B6A03F0040320
:10597800002B0AD07B681B685B6823F480217B6856
:105988001A6B7B681B680A435A607B685B6A03F082
:105998000803002B0AD07B681B685B6823F400416E
:1059A8007B685A6B7B681B680A435A607B685B6A32
:1059B80003F01003002B0AD07B681B689B6823F454
:1059C80080517B689A6B7B681B680A439A607B6886
:1059D8005B6A03F02003002B0AD07B681B689B6876
:1059E80023F400517B68DA6B7B681B680A439A6072
:1059F8007B685B6A03F04003002B1AD07B681B6846
:105A08005B6823F480117B681A6C7B681B680A4307
:105A18005A607B681B6CB3F5801F0AD17B681B68D2
:105A28005B6823F4C0017B685A6C7B681B680A4377
:105A38005A607B685B6A03F08003002B0AD07B689E
:105A48001B685B6823F400217B689A6C7B681B6881
:105A58000A435A6000BF0C37BD465DF8047B7047A7
:105A680080B586B002AF78607B680022C3F88420D6
:105A7800FAF796FDF8607B681B681B6803F008035B
:105A8800082B0ED16FF07E430093FB6800224FF481
:105A98000011786800F01BF80346002B01D003239F
:105AA80011E07B682022DA677B682022C3F8802017
:105AB8007B6800221A667B6800225A667B6800228F
:105AC80083F87820002318461037BD4680BD80B57E
